{
  "abi": [
    {
      "inputs": [],
      "stateMutability": "nonpayable",
      "type": "constructor"
    },
    {
      "anonymous": false,
      "inputs": [
        {
          "indexed": false,
          "internalType": "address",
          "name": "proxy",
          "type": "address"
        }
      ],
      "name": "ProxyCreated",
      "type": "event"
    },
    {
      "anonymous": false,
      "inputs": [
        {
          "indexed": false,
          "internalType": "address",
          "name": "sender",
          "type": "address"
        },
        {
          "indexed": false,
          "internalType": "address",
          "name": "sponsor",
          "type": "address"
        }
      ],
      "name": "SponsorCreated",
      "type": "event"
    },
    {
      "inputs": [],
      "name": "create",
      "outputs": [
        {
          "internalType": "contract Sponsor",
          "name": "",
          "type": "address"
        }
      ],
      "stateMutability": "nonpayable",
      "type": "function"
    },
    {
      "inputs": [
        {
          "internalType": "address",
          "name": "_logic",
          "type": "address"
        },
        {
          "internalType": "bytes",
          "name": "_data",
          "type": "bytes"
        }
      ],
      "name": "deployMinimal",
      "outputs": [
        {
          "internalType": "address",
          "name": "proxy",
          "type": "address"
        }
      ],
      "stateMutability": "nonpayable",
      "type": "function"
    },
    {
      "inputs": [],
      "name": "instance",
      "outputs": [
        {
          "internalType": "contract Sponsor",
          "name": "",
          "type": "address"
        }
      ],
      "stateMutability": "view",
      "type": "function"
    }
  ],
  "address": "0xE52af7130eEb62e779ff0fDb601671c4A1566e1B",
  "args": [],
  "solcInputHash": "0xd053d84b6950d77fd597492fc37dc33d2e0b447b6c34e928c29f083e8164a002",
  "bytecode": "0x608060405234801561001057600080fd5b5060405161001d9061005f565b604051809103906000f080158015610039573d6000803e3d6000fd5b50600080546001600160a01b0319166001600160a01b039290921691909117905561006c565b6118d0806103fc83390190565b6103818061007b6000396000f3fe608060405234801561001057600080fd5b50600436106100415760003560e01c8063022ec09514610046578063b3eeb5e21461006a578063efc81a8c14610120575b600080fd5b61004e610128565b604080516001600160a01b039092168252519081900360200190f35b61004e6004803603604081101561008057600080fd5b6001600160a01b0382351691908101906040810160208201356401000000008111156100ab57600080fd5b8201836020820111156100bd57600080fd5b803590602001918460018302840111640100000000831117156100df57600080fd5b91908080601f016020809104026020016040519081016040528093929190818152602001838380828437600092019190915250929550610137945050505050565b61004e6102b3565b6000546001600160a01b031681565b6000808360601b9050604051733d602d80600a3d3981f3363d3d373d3d3d363d7360601b81528160148201526e5af43d82803e903d91602b57fd5bf360881b60288201526037816000f0604080516001600160a01b038316815290519194507efffc2da0b561cae30d9826d37709e9421c4725faebc226cbbb7ef5fc5e7349925081900360200190a18251156102ac576000826001600160a01b0316846040518082805190602001908083835b602083106102035780518252601f1990920191602091820191016101e4565b6001836020036101000a0380198251168184511680821785525050505050509050019150506000604051808303816000865af19150503d8060008114610265576040519150601f19603f3d011682016040523d82523d6000602084013e61026a565b606091505b50509050806102aa5760405162461bcd60e51b81526004018080602001828103825260248152602001806103286024913960400191505060405180910390fd5b505b5092915050565b60008054604080516020810190915282815282916102dc916001600160a01b0390911690610137565b604080513381526001600160a01b038316602082015281519293507f9ab0a0f620347c84a9fac8819b8b835eac3de8548d7137e8d52a8eedfa6d5a8b929081900390910190a190509056fe50726f7879466163746f72792f636f6e7374727563746f722d63616c6c2d6661696c6564a264697066735822122063eec39e1e0be176edae1e7f65d50e7ac69b8e18f498e7941cd3d83d283b958064736f6c634300060c0033608060405234801561001057600080fd5b506118b0806100206000396000f3fe6080604052600436106100e05760003560e01c8063719ce73e1161007f578063b5c5f67211610059578063b5c5f67214610259578063c1d1005214610298578063d6f19262146102ad578063f2fde38b146102c2576100f2565b8063719ce73e146102045780638da5cb5b1461021957806396205de61461022e576100f2565b806359fe8539116100bb57806359fe8539146101965780635fcbd285146101c55780636cc25db7146101da578063715018a6146101ef576100f2565b80628c2676146100f75780630f4ef8a614610150578063372500ab14610181576100f2565b366100f2576100ef60006102f5565b50005b600080fd5b34801561010357600080fd5b5061014e600480360360a081101561011a57600080fd5b5080356001600160a01b0390811691602081013582169160408201358116916060810135909116906080013560ff166103fe565b005b34801561015c57600080fd5b50610165610509565b604080516001600160a01b039092168252519081900360200190f35b34801561018d57600080fd5b5061014e610518565b6101b3600480360360208110156101ac57600080fd5b50356102f5565b60408051918252519081900360200190f35b3480156101d157600080fd5b506101656106e7565b3480156101e657600080fd5b506101656106f6565b3480156101fb57600080fd5b5061014e610705565b34801561021057600080fd5b506101656107b9565b34801561022557600080fd5b506101656107c8565b34801561023a57600080fd5b506102436107d7565b6040805160ff9092168252519081900360200190f35b34801561026557600080fd5b506101b36004803603606081101561027c57600080fd5b506001600160a01b0381351690602081013590604001356107e7565b3480156102a457600080fd5b506101b3610a0b565b3480156102b957600080fd5b506101b3610a97565b3480156102ce57600080fd5b5061014e600480360360208110156102e557600080fd5b50356001600160a01b0316610b22565b609a546040805163027af00f60e01b81526004810184905290516000926001600160a01b03169163027af00f91479160248082019260209290919082900301818588803b15801561034557600080fd5b505af1158015610359573d6000803e3d6000fd5b50505050506040513d602081101561037057600080fd5b50519050806103ba576040805162461bcd60e51b815260206004820152601160248201527011549497d09413d3d317d1115413d4d255607a1b604482015290519081900360640190fd5b6103c381610c2d565b60408051828152905133917f1b851e1031ef35a238e6c67d0c7991162390df915f70eaf9098dbf0b175a6198919081900360200190a2919050565b600054610100900460ff16806104175750610417611024565b80610425575060005460ff16155b6104605760405162461bcd60e51b815260040180806020018281038252602e815260200180611823602e913960400191505060405180910390fd5b600054610100900460ff1615801561048b576000805460ff1961ff0019909116610100171660011790555b61049361102a565b609a80546001600160a01b038087166001600160a01b03199283161790925560988054898416908316179055609780548884169083161790556099805460ff8616600160a01b0260ff60a01b199488169190931617929092161790558015610501576000805461ff00191690555b505050505050565b6099546001600160a01b031681565b609954604080516396d76c7160e01b815290516000926001600160a01b0316916396d76c71916004808301926020929190829003018186803b15801561055d57600080fd5b505afa158015610571573d6000803e3d6000fd5b505050506040513d602081101561058757600080fd5b505160995460408051631c4b774b60e01b815260ff600160a01b840416600482015290519293506001600160a01b0390911691631c4b774b916024808201926020929091908290030181600087803b1580156105e257600080fd5b505af11580156105f6573d6000803e3d6000fd5b505050506040513d602081101561060c57600080fd5b5050604080516370a0823160e01b815230600482015290516000916001600160a01b038416916370a0823191602480820192602092909190829003018186803b15801561065857600080fd5b505afa15801561066c573d6000803e3d6000fd5b505050506040513d602081101561068257600080fd5b50516098549091506106a1906001600160a01b038481169116836110dc565b6098546040805183815290516001600160a01b03909216917fd74de5239e3ba2828701358ebe17da3a8d632fc23e2839342b2c296060c8cf719181900360200190a25050565b609a546001600160a01b031681565b6097546001600160a01b031681565b61070d611133565b6065546001600160a01b0390811691161461076f576040805162461bcd60e51b815260206004820181905260248201527f4f776e61626c653a2063616c6c6572206973206e6f7420746865206f776e6572604482015290519081900360640190fd5b6065546040516000916001600160a01b0316907f8be0079c531659141344cd1fd0a4f28419497f9722a3daafe3b4186f6b6457e0908390a3606580546001600160a01b0319169055565b6098546001600160a01b031681565b6065546001600160a01b031690565b609954600160a01b900460ff1681565b609a5460408051630bcded8960e21b81526001600160a01b038087166004830152915160009387931691632f37b624916024808301926020929190829003018186803b15801561083657600080fd5b505afa15801561084a573d6000803e3d6000fd5b505050506040513d602081101561086057600080fd5b50516108ab576040805162461bcd60e51b815260206004820152601560248201527429b837b739b7b917b4b73b30b634b216ba37b5b2b760591b604482015290519081900360640190fd5b6108b3611133565b6065546001600160a01b03908116911614610915576040805162461bcd60e51b815260206004820181905260248201527f4f776e61626c653a2063616c6c6572206973206e6f7420746865206f776e6572604482015290519081900360640190fd5b61091e84611137565b609a54604080516346ab38f160e01b81526001600160a01b0388811660048301526024820188905260448201879052915191909216916346ab38f19160648083019260209291908290030181600087803b15801561097b57600080fd5b505af115801561098f573d6000803e3d6000fd5b505050506040513d60208110156109a557600080fd5b50516098549092506109c4906001600160a01b038781169116846110dc565b6040805183815290516001600160a01b038716917fb4214c8c54fc7442f36d3682f59aebaf09358a4431835b30efb29d52cf9e1e91919081900360200190a2509392505050565b609954604080516393f1a40b60e01b815260ff600160a01b8404166004820152306024820152815160009384936001600160a01b03909116926393f1a40b9260448083019392829003018186803b158015610a6557600080fd5b505afa158015610a79573d6000803e3d6000fd5b505050506040513d6040811015610a8f57600080fd5b505191505090565b60995460408051632647c80360e11b815260ff600160a01b840416600482015230602482015290516000926001600160a01b031691634c8f9006916044808301926020929190829003018186803b158015610af157600080fd5b505afa158015610b05573d6000803e3d6000fd5b505050506040513d6020811015610b1b57600080fd5b5051905090565b610b2a611133565b6065546001600160a01b03908116911614610b8c576040805162461bcd60e51b815260206004820181905260248201527f4f776e61626c653a2063616c6c6572206973206e6f7420746865206f776e6572604482015290519081900360640190fd5b6001600160a01b038116610bd15760405162461bcd60e51b81526004018080602001828103825260268152602001806117fd6026913960400191505060405180910390fd5b6065546040516001600160a01b038084169216907f8be0079c531659141344cd1fd0a4f28419497f9722a3daafe3b4186f6b6457e090600090a3606580546001600160a01b0319166001600160a01b0392909216919091179055565b609954604080516396d76c7160e01b815290516000926001600160a01b0316916396d76c71916004808301926020929190829003018186803b158015610c7257600080fd5b505afa158015610c86573d6000803e3d6000fd5b505050506040513d6020811015610c9c57600080fd5b5051609954604080516393f1a40b60e01b815260ff600160a01b840416600482015230602482015281519394506000936001600160a01b03909316926393f1a40b92604480840193919291829003018186803b158015610cfb57600080fd5b505afa158015610d0f573d6000803e3d6000fd5b505050506040513d6040811015610d2557600080fd5b5051609a5460995460408051636eb1769f60e11b81523060048201526001600160a01b03928316602482015290519394508693919092169163dd62ed3e916044808301926020929190829003018186803b158015610d8257600080fd5b505afa158015610d96573d6000803e3d6000fd5b505050506040513d6020811015610dac57600080fd5b50511015610e3a57609a546099546040805163095ea7b360e01b81526001600160a01b039283166004820152602481018790529051919092169163095ea7b39160448083019260209291908290030181600087803b158015610e0d57600080fd5b505af1158015610e21573d6000803e3d6000fd5b505050506040513d6020811015610e3757600080fd5b50505b60995460408051631c57762b60e31b815260ff600160a01b84041660048201526024810186905290516000926001600160a01b03169163e2bbb15891604480830192602092919082900301818787803b158015610e9657600080fd5b505af1158015610eaa573d6000803e3d6000fd5b505050506040513d6020811015610ec057600080fd5b505190508181038414610f0d576040805162461bcd60e51b815260206004820152601060248201526f11549497d4d51052d157d49155d0549160821b604482015290519081900360640190fd5b6000836001600160a01b03166370a08231306040518263ffffffff1660e01b815260040180826001600160a01b0316815260200191505060206040518083038186803b158015610f5c57600080fd5b505afa158015610f70573d6000803e3d6000fd5b505050506040513d6020811015610f8657600080fd5b5051609854909150610fa5906001600160a01b038681169116836110dc565b6098546040805183815290516001600160a01b03909216917fd74de5239e3ba2828701358ebe17da3a8d632fc23e2839342b2c296060c8cf719181900360200190a260408051838152905133917f3dbdcfd4c1f2e08931aae3d544e149a1e643143f5234d166fe3debb783388495919081900360200190a25050505050565b303b1590565b600054610100900460ff16806110435750611043611024565b80611051575060005460ff16155b61108c5760405162461bcd60e51b815260040180806020018281038252602e815260200180611823602e913960400191505060405180910390fd5b600054610100900460ff161580156110b7576000805460ff1961ff0019909116610100171660011790555b6110bf611469565b6110c7611509565b80156110d9576000805461ff00191690555b50565b604080516001600160a01b038416602482015260448082018490528251808303909101815260649091019091526020810180516001600160e01b031663a9059cbb60e01b17905261112e908490611602565b505050565b3390565b609954604080516396d76c7160e01b815290516000926001600160a01b0316916396d76c71916004808301926020929190829003018186803b15801561117c57600080fd5b505afa158015611190573d6000803e3d6000fd5b505050506040513d60208110156111a657600080fd5b5051609954604080516393f1a40b60e01b815260ff600160a01b840416600482015230602482015281519394506000936001600160a01b03909316926393f1a40b92604480840193919291829003018186803b15801561120557600080fd5b505afa158015611219573d6000803e3d6000fd5b505050506040513d604081101561122f57600080fd5b505190508281101561127d576040805162461bcd60e51b815260206004820152601260248201527111549497d393d517d15393d551d217d0905360721b604482015290519081900360640190fd5b60995460408051630441a3e760e41b815260ff600160a01b84041660048201526024810186905290516000926001600160a01b03169163441a3e7091604480830192602092919082900301818787803b1580156112d957600080fd5b505af11580156112ed573d6000803e3d6000fd5b505050506040513d602081101561130357600080fd5b505190508082038414611352576040805162461bcd60e51b815260206004820152601260248201527111549497d55394d51052d157d49155d0549160721b604482015290519081900360640190fd5b6000836001600160a01b03166370a08231306040518263ffffffff1660e01b815260040180826001600160a01b0316815260200191505060206040518083038186803b1580156113a157600080fd5b505afa1580156113b5573d6000803e3d6000fd5b505050506040513d60208110156113cb57600080fd5b50516098549091506113ea906001600160a01b038681169116836110dc565b6098546040805183815290516001600160a01b03909216917fd74de5239e3ba2828701358ebe17da3a8d632fc23e2839342b2c296060c8cf719181900360200190a260408051868152905133917faf14da4c9c7eeb91ef462950405340d31988005c789d867d3a1394f082105e89919081900360200190a25050505050565b600054610100900460ff16806114825750611482611024565b80611490575060005460ff16155b6114cb5760405162461bcd60e51b815260040180806020018281038252602e815260200180611823602e913960400191505060405180910390fd5b600054610100900460ff161580156110c7576000805460ff1961ff00199091166101001716600117905580156110d9576000805461ff001916905550565b600054610100900460ff16806115225750611522611024565b80611530575060005460ff16155b61156b5760405162461bcd60e51b815260040180806020018281038252602e815260200180611823602e913960400191505060405180910390fd5b600054610100900460ff16158015611596576000805460ff1961ff0019909116610100171660011790555b60006115a0611133565b606580546001600160a01b0319166001600160a01b038316908117909155604051919250906000907f8be0079c531659141344cd1fd0a4f28419497f9722a3daafe3b4186f6b6457e0908290a35080156110d9576000805461ff001916905550565b611614826001600160a01b03166117c0565b611665576040805162461bcd60e51b815260206004820152601f60248201527f5361666545524332303a2063616c6c20746f206e6f6e2d636f6e747261637400604482015290519081900360640190fd5b60006060836001600160a01b0316836040518082805190602001908083835b602083106116a35780518252601f199092019160209182019101611684565b6001836020036101000a0380198251168184511680821785525050505050509050019150506000604051808303816000865af19150503d8060008114611705576040519150601f19603f3d011682016040523d82523d6000602084013e61170a565b606091505b509150915081611761576040805162461bcd60e51b815260206004820181905260248201527f5361666545524332303a206c6f772d6c6576656c2063616c6c206661696c6564604482015290519081900360640190fd5b8051156117ba5780806020019051602081101561177d57600080fd5b50516117ba5760405162461bcd60e51b815260040180806020018281038252602a815260200180611851602a913960400191505060405180910390fd5b50505050565b6000813f7fc5d2460186f7233c927e7db2dcc703c0e500b653ca82273b7bfad8045d85a4708181148015906117f457508115155b94935050505056fe4f776e61626c653a206e6577206f776e657220697320746865207a65726f2061646472657373436f6e747261637420696e7374616e63652068617320616c7265616479206265656e20696e697469616c697a65645361666545524332303a204552433230206f7065726174696f6e20646964206e6f742073756363656564a26469706673582212203f4ac7cb98eca2293e5a5ad91e912653652e387ffe794cdff545c6356837441f64736f6c634300060c0033",
  "devdoc": {
    "kind": "dev",
    "methods": {
      "create()": {
        "returns": {
          "_0": "sponsor A reference to the new proxied sponsor"
        }
      }
    },
    "version": 1
  },
  "userdoc": {
    "kind": "user",
    "methods": {
      "constructor": "Initializes the Factory with an instance of the sponsor",
      "create()": {
        "notice": "Creates a new sponsor as a proxy of the template instance"
      }
    },
    "version": 1
  },
  "storageLayout": {
    "storage": [
      {
        "astId": 21301,
        "contract": "contracts/sponsor/SponsorProxyFactory.sol:SponsorProxyFactory",
        "label": "instance",
        "offset": 0,
        "slot": "0",
        "type": "t_contract(Sponsor)21293"
      }
    ],
    "types": {
      "t_contract(Sponsor)21293": {
        "encoding": "inplace",
        "label": "contract Sponsor",
        "numberOfBytes": "20"
      }
    }
  },
  "gasEstimates": {
    "creation": {
      "codeDepositCost": "179400",
      "executionCost": "infinite",
      "totalCost": "infinite"
    },
    "external": {
      "create()": "infinite",
      "deployMinimal(address,bytes)": "infinite",
      "instance()": "1015"
    }
  }
}